:0400000052EF00F0CB
:10000800FACF01F0FBCF02F0E9CF03F0EACF04F01A
:10001800E1CF05F0E2CF06F0D9CF07F0DACF08F04C
:10002800F3CF09F0F4CF0AF0F6CF0BF0F7CF0CF0CE
:10003800F8CF0DF0F5CF0EF09EA60BD0C7B406D0C2
:10004800C9CF0FF0C68800D0C7A0FED7C6889E9635
:1000580000D00EC0F5FF0DC0F8FF0CC0F7FF0BC0B5
:10006800F6FF0AC0F4FF09C0F3FF08C0DAFF07C0B3
:10007800D9FF06C0E2FF05C0E1FF04C0EAFF03C0E4
:10008800E9FF02C0FBFF01C0FAFF1100FACF10F030
:10009800FBCF11F0E9CF12F033ED0CF0A1EF0EF029
:101000000001000A006400E8031027253264203A3A
:1010100020253264004D6F726E696E67004E6967FD
:101020006874004D31004D32004D33000000760EE3
:10103000D36EA9EC0DF0ACEC0EF087EC0EF0010EC7
:1010400077EC0EF0000E2A6E100E2B6E030E2C6E37
:10105000010E2D6E030E2E6E160E2F6E000EF7EC87
:101060000CF000D0590E216E000E226E570E236E2A
:10107000000E246E560E256E000E266E550E276E3F
:10108000000E286E540E296E000E2A6E580E2B6E1E
:10109000000E2C6E5A0E2D6E000E2E6E45EC0BF0CF
:1010A000000E67EC0EF01FC040F020C041F0060EAD
:1010B000566433D0100E566030D0000E206E000EF5
:1010C0001F6EFFEC0DF0010EC6EC0DF0000E236E4E
:1010D000040E88EC0DF0440E2B6E000E2C6E0B0EE1
:1010E0002D6E100E2E6E56C02FF0306A57C031F0A4
:1010F000326A14EC0AF0440E236E000E246EB6EC35
:101100000CF0010E236E050E88EC0DF0150E236E0B
:10111000100E246EB6EC0CF080D1120E566404D082
:10112000170E566405D000D0030E566031D000D0A3
:10113000010E206EF40E1F6EFFEC0DF0010EC6ECDA
:101140000DF0000E236E040E88EC0DF0440E2B6E95
:10115000000E2C6E0B0E2D6E100E2E6E56C02FF044
:10116000306A57C031F0326A14EC0AF0440E236E34
:10117000000E246EB6EC0CF0010E236E050E88EC0A
:101180000DF01D0E236E100E246EB6EC0CF045D142
:10119000020E566404D0070E566407D000D00F0E1E
:1011A00056643BD1130E566038D1C28241BE3DD049
:1011B000415003E14004D8A038D041BE06D0F40E1F
:1011C000405C010E4158D8B030D0000E206E000EA9
:1011D0001F6EFFEC0DF0010EC6EC0DF0000E236E3D
:1011E000040E88EC0DF0440E2B6E000E2C6E0B0ED0
:1011F0002D6E100E2E6E56C02FF0306A57C031F093
:10120000326A14EC0AF0440E236E000E246EB6EC23
:101210000CF0010E236E050E88EC0DF0150E236EFA
:10122000100E246EB6EC0CF0F8D041BE3ED0F50E98
:10123000405C010E4158D8A038D041BE06D0580EAF
:10124000405C020E4158D8B030D0000E206E640EC3
:101250001F6EFFEC0DF0010EC6EC0DF0000E236EBC
:10126000040E88EC0DF0440E2B6E000E2C6E0B0E4F
:101270002D6E100E2E6E56C02FF0306A57C031F012
:10128000326A14EC0AF0440E236E000E246EB6ECA3
:101290000CF0010E236E050E88EC0DF0230E236E6C
:1012A000100E246EB6EC0CF0B8D041BE3ED0590EF4
:1012B000405C020E4158D8A038D041BE06D0BC0ECA
:1012C000405C020E4158D8B030D0000E206EE10EC6
:1012D0001F6EFFEC0DF0010EC6EC0DF0000E236E3C
:1012E000040E88EC0DF0440E2B6E000E2C6E0B0ECF
:1012F0002D6E100E2E6E56C02FF0306A57C031F092
:10130000326A14EC0AF0440E236E000E246EB6EC22
:101310000CF0010E236E050E88EC0DF0260E236EE8
:10132000100E246EB6EC0CF078D041BE3ED0BD0E4F
:10133000405C020E4158D8A038D041BE06D0200EE5
:10134000405C030E4158D8B030D0010E206E5E0EC6
:101350001F6EFFEC0DF0010EC6EC0DF0000E236EBB
:10136000040E88EC0DF0440E2B6E000E2C6E0B0E4E
:101370002D6E100E2E6E56C02FF0306A57C031F011
:10138000326A14EC0AF0440E236E000E246EB6ECA2
:101390000CF0010E236E050E88EC0DF0290E236E65
:1013A000100E246EB6EC0CF038D041BE36D0210EB3
:1013B000405C030E4158D8A030D0010E206EF40ED0
:1013C0001F6EFFEC0DF0010EC6EC0DF0000E236E4B
:1013D000040E88EC0DF0440E2B6E000E2C6E0B0EDE
:1013E0002D6E100E2E6E56C02FF0306A57C031F0A1
:1013F000326A14EC0AF0440E236E000E246EB6EC32
:101400000CF0010E236E050E88EC0DF01D0E236E00
:10141000100E246EB6EC0CF000D0C2B2FED7EAEC8F
:101420000EF020D652EF00F02F0E376E000E386E01
:1014300016D1250E3F18D8B409D02BC0D9FF2CC027
:10144000DAFF3FC0DFFF2B4A2C2A09D1000E3E6E87
:10145000000E3D6E000E3A6E2DC0F6FF2EC0F7FF57
:101460000800F55056EC0EF0D8A039D0000E3E6EB4
:10147000000E3D6E00D03DC01FF03EC020F0000EBB
:10148000226E0A0E216E42EC0EF01FC03DF020C00D
:101490003EF0D00E336EFF0E346E2DC0F6FF2EC020
:1014A000F7FF0800F550356E366A33503526345054
:1014B000362235503D2636503E222D4A2E2A2DC04A
:1014C000F6FF2EC0F7FF0800F55056EC0EF0D8A03E
:1014D00006D0D1D704D0D1D015D0C1D013D02DC0D3
:1014E000F6FF2EC0F7FF2D4A2E2A0800F5CF3FF059
:1014F0003F50000AD8B4C1D0640AD8B403D00D0A52
:10150000D8A4ADD037C0D9FF38C0DAFFDECF3BF06A
:10151000DDCF3CF0020E3726000E38223CAE07D05D
:10152000030E3A123B6C3C1ED8B03C2A00D0010E90
:101530003F6E050E3F18D8B416D001D014D03F50DE
:10154000020D010EF324F66E100EF420F76E090062
:10155000F5503B5C0900F5503C58D8A004D001D0B0
:1015600002D03F2AE6D73D503E10D8B40AD03AC048
:1015700033F0030E3316D8B404D03D06D8A03E068F
:1015800000D0800E3FBE7F0E336E3D503F5C3E501C
:10159000800A3358D8B007D03F503D5E000E3FBEA2
:1015A000FF0E3E5A05D0000E3E6E000E3D6E00D07E
:1015B0003D503E10D8B411D02BC0D9FF2CC0DAFF5B
:1015C000200EDF6E2B4A2C2A3D06D8A03E063D5049
:1015D0003E10D8B402D0F0D700D03AC033F0030E9A
:1015E0003316D8B409D02BC0D9FF2CC0DAFF2D0E8A
:1015F000DF6E2B4A2C2A00D03FC039F02AD0395058
:10160000020D010EF324F66E100EF420F76E0900A1
:10161000F5CF21F00A00F5CF22F03BC01FF03CC00F
:1016200020F034EC0DF01FC026F020C027F0000E93
:10163000296E0A0E286E62EC0DF02650300F3F6EB8
:101640002BC0D9FF2CC0DAFF3FC0DFFF2B4A2C2A6A
:1016500000D039063928D8B402D0D1D700D02DC057
:10166000F6FF2EC0F7FF2D4A2E2A0800F5CF3FF0D7
:101670003F50D8B402D0DDD600D02BC0D9FF2CC04B
:10168000DAFF000EDF6E00D01200E2EC0EF0D00E9A
:10169000CBEC0EF0010ECBEC0EF0E6EC0EF0D10E22
:1016A000CBEC0EF0B7EC0EF021C0D9FF22C0DAFF70
:1016B000DF6ED9EC0EF0B7EC0EF023C0D9FF24C0DA
:1016C000DAFFDF6ED9EC0EF0B7EC0EF025C0D9FFD3
:1016D00026C0DAFFDF6ED9EC0EF0B7EC0EF027C0B3
:1016E000D9FF28C0DAFFDF6ED9EC0EF0B7EC0EF0B0
:1016F00029C0D9FF2AC0DAFFDF6ED9EC0EF0B7ECB3
:101700000EF02BC0D9FF2CC0DAFFDF6ED9EC0EF043
:10171000B7EC0EF02DC0D9FF2EC0DAFFDF6ED4EC8F
:101720000EF021C0D9FF22C0DAFFDF5095EC0EF099
:1017300021C0D9FF22C0DAFFDF6E23C0D9FF24C049
:10174000DAFFDF5095EC0EF023C0D9FF24C0DAFF9A
:10175000DF6E25C0D9FF26C0DAFFDF5095EC0EF012
:1017600025C0D9FF26C0DAFFDF6E27C0D9FF28C009
:10177000DAFFDF5095EC0EF027C0D9FF28C0DAFF62
:10178000DF6E29C0D9FF2AC0DAFFDF5095EC0EF0DA
:1017900029C0D9FF2AC0DAFFDF6E2BC0D9FF2CC0C9
:1017A000DAFFDF5095EC0EF02BC0D9FF2CC0DAFF2A
:1017B000DF6E2DC0D9FF2EC0DAFFDF5095EC0EF0A2
:1017C0002DC0D9FF2EC0DAFFDF6EDEEC0EF0120066
:1017D000000E246E22AE07D0216C221ED8B0222A21
:1017E000010E246E00D020AE07D01F6C201ED8B092
:1017F000202A010E241A00D0000E266E000E256E3F
:1018000021502210D8B421D0010E236E05D0D890DB
:1018100021362236232A00D022BE02D0F8D700D0AB
:10182000D8902536263621501F5C22502058D8A04B
:1018300006D021501F5E2250205A258000D0D8901B
:1018400022322132232EECD700D02450D8B405D038
:10185000256C261ED8B0262A00D025C01FF026C031
:1018600020F000D012000600EACF13F0E1CF14F010
:10187000E2CF15F0D9CF16F0DACF17F0F3CF18F08A
:10188000F4CF19F0F6CF1AF0F7CF1BF0F8CF1CF019
:10189000F5CF1DF09EA60CD0C7A407D0C9CF1EF06F
:1018A000C790C68800D0C7B0FED7C6889E9600D025
:1018B0001DC0F5FF1CC0F8FF1BC0F7FF1AC0F6FFE4
:1018C00019C0F4FF18C0F3FF17C0DAFF16C0D9FF24
:1018D00015C0E2FF14C0E1FF13C0EAFF12C0E9FF28
:1018E00011C0FBFF10C0FAFF1100000E246E20AEE5
:1018F00007D01F6C201ED8B0202A010E246E00D005
:1019000022AE05D0216C221ED8B0222A00D0215050
:101910002210D8B41DD0010E236E05D0D8902136E8
:101920002236232A00D022BE02D0F8D700D0215080
:101930001F5C22502058D8A005D021501F5E225095
:10194000205A00D0D89022322132232EF0D700D056
:101950002450D8B405D01F6C201ED8B0202A00D047
:101960001FC01FF020C020F000D01200000E276E14
:101970001FD02750010D23C025F024C026F0F350BE
:101980002526F450262225C0F6FF26C0F7FF000EBC
:10199000F86E0F0EF76403D00800F55005D0F6CFAF
:1019A000E9FFF7CFEAFFEF5016EC0EF0272A00D040
:1019B0002750010D23C025F024C026F0F350252622
:1019C000F450262225C0F6FF26C0F7FF000EF86E61
:1019D0000F0EF76403D00800F55005D0F6CFE9FFED
:1019E000F7CFEAFFEF500009D8A4C3D71200306E3A
:1019F0003050E3EC0DF0306E2A50E3EC0DF02A6E1F
:101A00002B50E3EC0DF02B6E2C50E3EC0DF02C6E14
:101A10002D50E3EC0DF02D6E2E50E3EC0DF02E6EFC
:101A20002F50E3EC0DF02F6EE2EC0EF0D00ECBEC6D
:101A30000EF0000ECBEC0EF03050CBEC0EF02A5036
:101A4000CBEC0EF02B50CBEC0EF02C50CBEC0EF080
:101A50002D50CBEC0EF02E50CBEC0EF02F50CBECEB
:101A60000EF0DEEC0EF01200000E246E000E236E5F
:101A700021502210D8B421D0010E256E05D0D89067
:101A800021362236252A00D022BE02D0F8D700D037
:101A9000D8902336243621501F5C22502058D8A0DD
:101AA00006D021501F5E2250205A238000D0D890AB
:101AB00022322132252EECD700D023C01FF024C0C3
:101AC00020F0120028502910D8B41DD0010E2A6E23
:101AD00005D0D890283629362A2A00D029BE02D02F
:101AE000F8D700D02850265C29502758D8A005D018
:101AF0002850265E2950275A00D0D8902932283203
:101B00002A2EF0D700D026C026F027C027F01200DA
:101B1000286E020E23601CD00F0E286401D018D04E
:101B20002304D8B402D0800E01D0C00E28C024F007
:101B3000256A2410266E2550276E00D02650C6EC4C
:101B40000DF00D0E246EFC0EE82EFED7242EFCD7D1
:101B50001200000E836E000E956E838E270E236E8C
:101B6000F50EE82EFED7232EFCD700F0320EC6EC81
:101B70000DF0280EC6EC0DF00C0EC6EC0DF0010EAB
:101B8000C6EC0DF0060EC6EC0DF01200226E0D0E26
:101B9000216EFC0EE82EFED7212EFCD7000E1F6E04
:101BA00022502CEC0EF02238F00B226E030E216E28
:101BB000980EE82EFED7212EFCD7000E1F6E225065
:101BC0002CEC0EF01200296E29C01FF0206A000EC6
:101BD000226E0A0E216E75EC0CF01FC027F020C09B
:101BE00028F029C01FF0206A000E226E0A0E216E16
:101BF000E8EC0BF01F38F00B272400D012001FC0B8
:101C000021F0030E2116213ABD502118CF0B2118C7
:101C1000BD6E1FC021F020C022F0223422322132BA
:101C20002234223221322150BE6E1200226E0D0E5D
:101C3000216EFC0EE82EFED7212EFCD7010E1F6E62
:101C400022502CEC0EF02238F00B226E010E1F6E8B
:101C500022502CEC0EF01200206E20380F0B206E5C
:101C600020500F0B206E8350F00B836E835020109A
:101C7000836E1FB002D0839801D08388839A838CAF
:101C8000839C12001F502102F3CF23F0F4CF24F0E5
:101C90001F502202F350242620502102F350242604
:101CA00023C01FF024C020F000D01200216E000ECF
:101CB000206E3A0E216006D02F0E216403D0010E53
:101CC000206E00D020C01FF01F3000D01200226E06
:101CD00022C021F021462146C2502118C30B2118F1
:101CE000C26EC3CF1FF0C4CF20F000D01200206E10
:101CF000CF0EC116205000081F6E0F0E1F26C150B8
:101D00001F18F00B1F18C16EC08EC2801200949471
:101D1000000ECC6E7C0ECB6ECA50FC0B0209CA6E54
:101D2000BD50F00B0C09BD6E1200206E20C01FF0DC
:101D30000F0E1F1620380F0B0A0DF3501F2400D072
:101D4000120000EE40F01B0EEE6AE806FDE1000E08
:101D5000F86E000117EF08F0280EC66E000EC56E73
:101D6000000EC76E130EC86E948694881200C1ECE4
:101D70000EF0C58600D09EA6FED79E96C95000D014
:101D8000120000D0C7B4FED7C5CF1FF01F0E1F161C
:101D9000D8A4F8D71200206EC1EC0EF020C0C9FF05
:101DA000C1EC0EF000D01200C1EC0EF0C58AC5885F
:101DB0001200C1EC0EF0C59AC5881200C1EC0EF0FD
:101DC000C5841200C1EC0EF0C5801200C1EC0EF00B
:081DD000C5821200CA84120052
:020000040020DA
:08000000FFFFFFFFFFFFFFFF00
:020000040030CA
:0E000000FF081F1EFF8181FF0FC00FE00F40A1
:00000001FF
